:020000040000fa
:10000000f83f0020a12800007f150000571d0000c8
:1000100000000000000000000000000000000000e0
:10002000000000000000000000000000a71f00000a
:100030000000000000000000a71f0000a71f000034
:10004000a71f0000a71f0000a71f0000a71f000098
:10005000a71f0000a71f0000a71f0000a71f000088
:10006000a71f0000a71f0000a71f0000a71f000078
:10007000a71f0000a71f0000a71f0000a71f000068
:10008000a71f0000a71f0000a71f00001d2f0000d2
:10009000a71f00000000000000000000a71f0000d4
:1000a000a71f0000a71f0000a71f0000a71f000038
:0800b00000000000a71f000082
:020000040000fa
:1000b800f8b5c046f8bc08bc9e46704781280000c9
:1000c800f8b5c046f8bc08bc9e46704759280000e1
:020000040000fa
:0800d800b41800000100000053
:020000040000fa
:1000e000f0b59bb013930b6815900a938b680d9134
:1000f0000b930b694d681893cb68029313680893b0
:1001000053680898069300220023069902f0f3fc36
:1001100000280dd10a9b5b073bd408200a9b0340b3
:1001200009930b9b0393099b002b0fd0202306e020
:10013000802212069446069b634406932d23029a5e
:1001400013700b9b013b039301230993069b0899b2
:100150005b005b08924a00291dd193421bd1029992
:10016000139b8c46099a413b624410008d49192b20
:1001700000d98d4903f0aaf9029803f0cbf80a9b45
:100180000200009302990b9b159801f0c8ff1bb069
:10019000f0bd2b23d3e7934203d80ed1089b002b4d
:1001a0000bd00299139b8c46099a413b6244100084
:1001b0007e49192bded97e49dce70022002308980e
:1001c000069902f012fe00267a4f002400283ed144
:1001d000040002e00134049e059f0022764b3000ab
:1001e000390000f0cdff089a069b0490059102f0bb
:1001f00063fc0028eed00023049320e06f4b9c4268
:1002000014da049b002b11d100226d4b089806993b
:1002100000f0b6ff6a4b08900691300039000022ca
:1002200000f0aeff012306000f00049330003900f8
:100230000022614b01f01bfc06000f00013c320064
:100240003b000898069902f056fc0028d6d1139876
:1002500003f016f9c3b20c93002d00da94e1049375
:10026000672b00d0b2e0002d00d189e1231d02db15
:10027000ac4200daa6e06523b6e0002200230e922d
:100280000f9303e106960797049b2600652b00d089
:100290001ae1002618e1129b002b0bd1002e09da7f
:1002a000029a14992e335354039b0137013b039355
:1002b00001231293ea193b009446302102e0029a8e
:1002c000d15401339c45fad1039aeb19551b029a7c
:1002d00030305f1cd0546b1e0393002521e00d9b32
:1002e00014971b691093053bbb4200d8f5e0069ab2
:1002f000079b08980e9901f0bafb01f079fc109069
:10030000119102f0dffc092800dd092010230a9a70
:1003100013400343bfd10c9b672bbcd1002ec9da1d
:1003200001358020000684460e99089a61440b002e
:100330001098119900920193069a079b03f090f888
:1003400080231b06cb1808900e930698079900226d
:10035000194b01f08cfb013e06900791b9e00a9b16
:10036000db0600d4bde02e23029ad3550137b8e056
:1003700020000a2101f03afd029b3031013d595520
:1003800020000a2101f0e8fc039b0400013b0393d9
:10039000b7e0029b03991a5c5b181a540138e0e03d
:1003a0000000f07f50340000543400005834000046
:1003b0005c3400000000f03f00002440d4feffff4a
:1003c00000005043002c0eda66230493049b013591
:1003d000662b0ad1002c02da002600246d4f0c9bfc
:1003e000672b00d02d1966230493089b0e960f9758
:1003f0001293069b1093002314930e9a0f9b12984e
:10040000109901f034fb01f0f3fb1690179102f004
:1004100059fc19908020000684461099129a614474
:100420000b0016981799009201930e9a0f9b03f0f8
:1004300017f880231b06cb18129010930e980f9973
:10044000554b002201f013fb149b0e900f910133ca
:1004500014939d42d1d10022504b00f091fe0e909a
:100460000f9102000b001298109902f044fb002833
:1004700000d002e70e9a0f9b1298109902f0b5fc7b
:10048000002803d0199bdb0700d4f6e60e9a0f9bd9
:100490000898069900f074fd002208900e913e4bda
:1004a0003000390000f06cfe089a0e9b0690079110
:1004b00002f080fa002800d1e4e6049b0134662ba8
:1004c00000d0e1e626000135731b0025099f169335
:1004d0001295169b9e4200d001e7129b002b00d183
:1004e0003de70026029bdb1906931e70049b652bdb
:1004f0002ad1189b5d1e029b5e55b44201da64420c
:100500000136002c00d033e7189beb1a0333002b85
:1005100000dd2de76a1e2d23002e00d1023b02993b
:10052000023d8b54139b413b192b01d84523049367
:10053000029b5919049b0b70039b023b0393af4230
:1005400002da069802f0c2ff03230a9a1340022b34
:1005500000d011e6039b002b00dc0de6029802f0b0
:10056000d9fe099b834200dc13e7029a30219446ae
:1005700063441800039a02f02dff00230b93fbe560
:10058000012573e6062571e60c9b672bfad00493d0
:1005900006251be70000f03f000024400000144047
:020000040000fa
:1005a000f0b599b014930b68566809934b68139093
:1005b0000d938b68cf680c930b693100119313680e
:1005c000002208930898002302f095fa00280cd125
:1005d000099b5b0724d40820099b0c9d03400593cd
:1005e0000cd02023013d3b7006e080231b06f6184b
:1005f0002d233b700c9b5d1e01230593089a73000d
:100600005b08002a0ed1ac4a93420bd1149b059a89
:10061000413bb818a94caa49192b12d9210010e066
:100620002b23e6e7a44a934203d819d1089b002b59
:1006300016d0149b059a413bb818a24ca249192b1d
:10064000ecd802f043ff200002f064fe099b020098
:10065000009339000c9b139801f061fd19b0f0bdb7
:10066000059b05995a1c30237b54149b413b0e93e8
:100670000e995823192900d920330599bb5402310a
:10068000ab1e05910793002200230898310002f069
:10069000acfb002800d165e100238c4c069302934b
:1006a00003940d9b1093002b01da18231093029be7
:1006b000039c0a930b9434000023089d1293280096
:1006c0000a9a0b9b210001f0d2f901f091fa0a9ae3
:1006d0000b9b1690179100f053fd02000b002800b1
:1006e000210002f0c5fe7a4b05000c000a980b9918
:1006f000002200f045fd129b0a900b9101330f93ed
:100700000d9b002b07da002200232800210002f0b5
:100710006cfb002806d1109b129a934200dd27e162
:1007200001330f9300220a980b996a4b00f028fdc1
:100730000a900b9102000b002800210002f0dbf967
:10074000002800d016e10a9a0b9b2800210002f035
:100750004cfb002806d01698179902f0b3fac3078d
:1007600000d407e10a9a0b9b0898310000f008fcbe
:10077000129149000a904908002803d14e4b994232
:1007800000d143e70025059c10950895119b260094
:10079000053ba34230d9029a039b0a98129901f0b3
:1007a00066f901f025fa1490159102f08bfa031ef8
:1007b00000d0e4e0089a002a00d1e0e00135029a76
:1007c000039b1498159900f0dbfc02000b000a98bb
:1007d000129902f04dfe00220a9012913c4b0298b1
:1007e000039900f0cdfc089b02900391013308931c
:1007f000089a0f9b9342c9d1109b002b1ad1002d50
:1008000000d100e10d9b002b00dcfce0099bdb0725
:1008100000d5f8e02e2230213b191a702a19ba1897
:10082000597001339a42fbd12c19ed43079b0134d7
:10083000eb18079300263b191e700293119b5d1e57
:10084000069b7e55b34202da5b4206930136069b55
:10085000002b00d0c0e0119beb1a013300d1bbe0ac
:100860006a1e2d23002e00d1023bbb540e9a023d7e
:100870005023192a00d9203379190b70ac4202dabf
:10088000029802f023fe0323099a1340022b11d190
:10089000079b9c1e002c0ddd380002f03bfd059be4
:1008a000984200dba8e0f8182200302102f092fd07
:1008b00000230c933800c7e60000f07f44340000aa
:1008c000403400004c340000483400000000f03f89
:1008d0000000b03f00002040069b029403950133c6
:1008e0000693029a039b1000190000f049fb0400d4
:1008f0000d0002000b000898310002f0fcf80028ff
:10090000ead0029a039b0898310002f0f4f800281c
:1009100000d1c6e60298039900223f4b00f030fc5c
:100920000022002302f061fa00280fd002980399f8
:1009300000223a4b00f024fc002202900391374b36
:100940000898310000f01cfc0e000890324b029811
:100950000399002200f014fc069b02900391013bd6
:100960000693cee700232e4c069002930394b8e73b
:100970000f9ba3e6002300240a930b94f2e6109a3f
:10098000002a0ad1089a002a07d02e22ba55079abf
:100990000134013a0792012210922e19302201e00f
:1009a0003a550134b442fbd11800079a5730551b11
:1009b000092b01dc303318000e9b192b06d820239d
:1009c0000343613b192b01d802f061fd6b1e741cbf
:1009d000b85507930025f2e606980a2101f006fab9
:1009e000013d3031795506980a2101f0b5f9079b90
:1009f0000690013b07932ae7079b3a5c023bfb18f2
:100a00001a5401384be7099bdb0600d412e72e236a
:100a10003b5501340ee7c0460000e03f0000504364
:040a20000000f03fa3
:020000040000fa
:100a24000023f0b506001500b1b0079103930799b0
:100a34000b78002b00d10ce101235b420c9310ab2b
:100a440000240e9380230b940d940f930b5d002bc5
:100a540001d0252b2ad1002c06d02200300002f030
:100a6400ddf8079b1b190793079b1a78252a00d0ea
:100a7400e4e0013304930793022301219c461027e9
:100a8400079803782b2b1ad025d8202b1ad0232b88
:100a94001dd02a2b28d001f0cdff0d90079b1a788a
:100aa400303a092a31d801330793f7e70134cde707
:100ab4000b9b05930b4301300b930790e0e7042352
:100ac4000b9a0fe00b9b0593059a08230ae00b9bf6
:100ad40005933b43efe72d2bead0302bd9d1624667
:100ae4000b9b05931343e6e72b6801301a1d1b6823
:100af40007902a600d93002b07da0b9a5b4205924c
:100b0400012205990d934a400b920b9bda0702d5fb
:100b1400022293430b93079b1a782e2a0ed10022ac
:100b2400581c0c9207905a782a2a27d1023307932b
:100b34002b681a1d1b682a6005930c9307a802f002
:100b4400a5f8079b0700187802f098fc692800d1e3
:100b540082e034dc632800d1dbe01adc252800d1f4
:100b6400e8e0612858d0049b0122079300235242f5
:100b74000c920b930d9300930232e5e001f05affbf
:100b84000c90079b1a78303a092ad7d80133079377
:100b9400f7e7642860d06728e5dc2a00390008a854
:100ba40002f090f9002800d1afe0079b0ba95a1c72
:100bb40007921b7808aa3000fff790fa3de07028ee
:100bc40000d17de016dc6e2800d197e06f28cad1f1
:100bd4002b000022390008a800f0a9ff002800d14a
:100be40093e0079b08aa01330ba93000079301f097
:100bf40084fb22e0752840d078284fd07328b2d1e6
:100c0400802f00d081e0079b2a6801330793131dce
:100c14002b601268002388e02a00390008a802f03b
:100c240051f9002800d170e0079b0ba95a1c0792c8
:100c34001b7808aa3000fff7b1fc2418039b1c1989
:100c4400a34200dc82e04f22414b1a6001235b4245
:100c54000393039831b0f0bd2b000122390008a89a
:100c640000f065ff002850d0079b08aa01330ba9a8
:100c74003000079301f014f8dfe72b00002239005d
:100c840008a800f054ff00283fd0079b08aa0133ae
:100c94000ba93000079301f0e9fccee72b000022fa
:100ca400390008a800f043ff00282ed0079b5a1ce7
:100cb40007921b7808aa0ba9300000f0c5fbbce71b
:100cc4002b000022f02108a800f031ff00281cd0de
:100cd400079b099a01330793089b13430cd11d4fbb
:100ce400380002f015fb390002000b9b00930d9baa
:100cf400300001f012faa0e77823dbe7039b390008
:100d04001a1908a82b0001f02ffb079b0133079346
:100d140094e7802ff9d1079b013307932b681a1da1
:100d24001b682a6008aa137001230ba9300001f084
:100d34001bfd82e7802fe8d10122079b0133079333
:100d44000b9b049300930d9b0349d1e703946ee638
:0c0d5400d4040020ea340000f034000059
:020000040000fa
:100d6000580400201c00000000000000a80400201f
:100d70000800000000000000e00400200200000065
:100d800000000000dc040020020000000000000061
:100d9000c0040020080000000000000074040020cf
:100da0001c00000000000000c80400200400000037
:100db00000000000900400200c0000000000000073
:100dc000de0400200200000000000000e604002015
:100dd000010000000100000001000000e20400200a
:100de0000100000000000000b00400200800000026
:100df00000000000e30400200300000000000000e9
:100e0000cc040020040000000000000008040020c2
:100e10005000000000000000e80400206c0000000a
:100e200001000000f4040020f0040020f40400207d
:100e30000000000025000000080000200004000061
:100e400000000000000000000000000000000000a2
:100e50000000000000000000000000000000000092
:100e60000f3500000000000000000000000000003e
:100e70000000000039240000000000000000000015
:100e80000000000000000000000000000000000062
:100e9000000000200804000000000000b40500204d
:100ea000200000000100000001000000030000001d
:100eb0000000000000000000000000000000000032
:100ec00000000000b8040020b80400200800000062
:100ed00000000000d0040020080000000000000016
:100ee0005405002060000000010000000100000027
:100ef00003000000000000000000000000000000ef
:100f00000000000000000000bd25000000000000ff
:100f10000000000000000000d93400008f2c000009
:100f200000000000000000000000000000000000c1
:100f300000000000000000000000000000000000b1
:100f4000000000000000000000000000d4050020a8
:100f5000040000000100000001000000d80400208f
:100f600004000000000000009c0400200c000000b1
:100f700000000000000000000000000066666666d9
:020000040000fa
:100f8000f0b40125ed070f005f405ad48b4200d129
:100f9000824205d950404240504059404b40594050
:100fa0004e18760ddf187f0d3bd0741c640529d0d8
:100fb000f41b352c26d80e0ddb022b43db0ac902ad
:100fc0002943c9121700202c1ed2e741e2405740a6
:100fd000e3415a40a340e3405a400024801859415d
:100fe0000ad3b21c520521d0c207012f624117005b
:100ff0004008cb0718434908013636054208af417f
:1010000060417141f0bc7047203c06d01f00e741b1
:10101000e3405f400024012a6741c0186141ebd3df
:10102000dfe7002eeed129400020ebe70136310545
:101030000020e7e7e742e5d10020c143090dc904dc
:10104000e0e76b400e00871a9e4104d26e40c01b41
:10105000b141d21973414e18df18ac0ae642e9d209
:10106000760d7f0d31d0f41b362ccbd8b4460e0d47
:10107000db022b43db0ac9022943c90a012c32d8ff
:1010800004d1d4075208df073a435b08ef0a6442f1
:10109000904199411ed0002239424dd1241940413e
:1010a00049410124394204d10134001849413942ef
:1010b000fad06246a24204d9361b013e3605891990
:1010c000a0e7f10ac90700209ce736429ad1002028
:1010d000002197e70200224394d0b842ded20100fb
:1010e00020002024e3d1202c13dd203ce241170016
:1010f000a240e2405740e3415a40a340e3405a40f7
:10110000012fbf410137174300227c429841914192
:101110000ce01700e741e2405740e3415a40a3404a
:10112000e3405a407c429041994100220f0303d290
:10113000013e241940414941013e36054708ac4172
:0811400050417141f0bc704701
:020000040000fa
:1011480008d1002806d1f54204d801d3002a01d1dc
:101158006d0d09d10020c143090dc904f0bdf9d1b5
:101168001242f7d1640df5d00020c1434905490862
:10117800a6e000206146f0bdf0b50127ff070e008c
:101188005e403e40b446be0a4c18dd18f442d7d241
:10119800f542e4d2640decd06d0dead06419c902b1
:1011a8003943460dc0023143db023b43db0a10b42e
:1011b8008e4685b297b26f43140c6c433e0ca4194b
:1011c800260c2404bfb227439cb26c43a419190c03
:1011d8006943250ca4b249190d04090c6419000cc3
:1011e80095b245433e0c76193743bfb2360c150c01
:1011f8004543ad19a6b2240cad192e0437432e0c65
:1012080036199db24543ad19acb22e0c89191d0c87
:1012180045436d182e04290c3443704680b295b2ac
:1012280045433e0c76193743bfb2360c150c45437f
:10123800ad19a6b2ad19240c2e0437432e0c36195d
:101248009db24543ad19acb22e0c89191d0c45430e
:101258006d182e043443290c75462d0c90b2684342
:101268003e0c80190604bfb23e43070ca0b23f18db
:10127800120c6a43d019020c80b2240ca4189ab23a
:101288006a43121914042043120c89181b0c6b436f
:10129800c91810bc01273d05294203d1b6194041a0
:1012a8004941013cff077d0d013d641b0bdb6d00cf
:1012b800ac4209da240500254208be416841614173
:0a12c80066463143f0bd54e74ee7df
:020000040000fa
:0212d200704763
:020000040000fa
:1012d40030b583b001f0a4ff02f0def804004e4afa
:1012e400a023d3581b05dd0f4c4b1b78032b40d098
:1012f400052b00d170e0012b08d0484b01221a7055
:10130400474b00221a70002003b030bd444b1b78b9
:10131400002b24d00020002df6d0012bf4d13e4a1e
:10132400a023d35800201b05eed400230093009a79
:101334003c4b9a4206dc1a00009b01330093009b4d
:101344009342f9dd354b5c8003221a70344b002242
:101354001a702100344801f0b9fe0020d4e7334864
:1013640001f002fe2e4b01221a70002dd7d100206d
:10137400cae72b4b1b78002b24d00020002dc3d0b0
:10138400012bc1d1244aa023d35800201b05bbd470
:1013940000230193019a234b9a4206dc1a00019b15
:1013a40001330193019b9342f9dd1c4b9c80052280
:1013b4001a701b4b00221a7021001d4801f086fe92
:1013c4000020a1e71b4801f0cffd154b01221a7044
:1013d400002dd7d1002097e7104b9a885b889a425a
:1013e4000cd3154801f0c0fd0c4b01221a700023e8
:1013f400124a13700a4a1370002085e7104801f05e
:10140400b3fd064b9a8859880e4801f05ffe0b4bda
:1014140001221a70012077e700440041b004002043
:10142400e30400204fc30000dc170000ac170000e9
:101434002c180000fc17000088180000e2040020ab
:081444004c18000068180000bc
:020000040000fa
:10144c00f0b58fb00d934b680c9006938b680d0024
:10145c000793cb6816000393069b0f68002b44dba5
:10146c0002239f4310233b400a93079b04930a9b40
:10147c00002b07d0726833681343079a02d013000d
:10148c00023b049308233b400b935a1e9341049a4e
:10149c00d31a04933368039a0893736809932b69de
:1014ac005c1e00231355069b0593012c20dc0a9b24
:1014bc00002b51d10b9b002b03d02023039a013c12
:1014cc0013552b6900975a1e039b121b19190c9864
:1014dc00079b00f01efe0c9b5b68db0503d56b685d
:1014ec00984200da18000fb0f0bd01230693b9e75b
:1014fc00089b099a13430bd1059b002b08dc069a19
:10150c00049b9b1a059a9b18002bd0ddbb07ced5ec
:10151c000f23089a013c134018005730092b01dcab
:10152c00303318000d9b413b192b06d82023034365
:10153c00613b192b01d801f0a4ff039b1855059ba7
:10154c00013b0593099b1a07089b1b091a43099b2e
:10155c0008921b090993a8e70cce1343aad0039b4e
:10156c000d9a1b19013b1a703023039a023c135538
:02157c00a0e7e6
:020000040000fa
:02157e00fee786
:020000040000fa
:10158000f0b5d6464f464646c0b582b004003c4b47
:101590001d680378052b05d89b003a4ad3589f460f
:1015a0000123037002b01cbc90469946a246f0bdd0
:1015b00001f038fea56002232370f3e701f03efe40
:1015c0000028efd003232370ece701f067ff608071
:1015d0002d4b58432d4900f05ffc2d4b18602d4bcf
:1015e0001a882d4b1988200001f044fc0423237035
:1015f000d8e7838842880092284a4021406901f058
:10160000a0fe606901f064fd214e376863889a4648
:10161000a3699946fa218900380000f079fc01910c
:10162000fa218900380000f037fc009053461c4a2c
:101630004021484601f085fe376863889946a369d2
:101640009846fa218900380000f062fc0191fa21e5
:101650008900380000f020fc00904b46104a4021e1
:10166000404601f035fda560052323709ae78368a5
:10167000ed1ac3689d4200d294e70023037091e7fe
:10168000c80400208432000072060000ff0f000032
:10169000c0040020de040020dc04002070290000cb
:0416a0008c29000091
:020000040000fa
:1016a400334a136a33490b4002210b431362082364
:1016b400d1680b42fcd02e4b00229a619a8c802177
:1016c4008a439a841a001023d1680b42fcd02a4b17
:1016d4001b689b0e3f2b48d09b0280229200134331
:1016e400234a93621023d1680b42fcd0204b022280
:1016f4009a841a001023d1680b42fcd01f4b204a55
:101704005a60204a9a601a0053785bb2002bfbdbc4
:101714001a4b1d4a5a80164b2022da6407329a6407
:101724001d320221995418004e31413a435c134052
:10173400032bfbd1114b842252025a608022920067
:101744009a601a0053785bb2002bfbdb0b4b0f4af9
:101754005a800f4a5a800f4a5a800f4a5a800f4ab9
:101764005a800f4b0f4a1a627047203bb4e7c046b9
:10177400000800400000ffcf24608000000c0040ff
:1017840001060100010400000141000019400000ad
:101794001a4000001b4000001c4000001e400000d6
:0817a40000040040801901005f
:020000040000fa
:1017ac00506c6163652073656e736f7220696e2077
:1017bc0044525920636f6e646974696f6e20616e58
:1017cc006420707265737320627574746f6e0d0093
:1017dc004472792063616c6962726174696f6e2006
:1017ec007265636f726465643a2025640d0a0000ab
:1017fc00506c6163652073656e736f7220696e2027
:10180c0057455420636f6e646974696f6e20616e06
:10181c006420707265737320627574746f6e0d0042
:10182c005765742063616c6962726174696f6e20b4
:10183c007265636f726465643a2025640d0a00005a
:10184c0043616c6962726174696f6e207375636356
:10185c0065737366756c210d00000000447279206d
:10186c0076616c75653a2025642c2057657420765a
:10187c00616c75653a2025640d0a000043616c6942
:10188c0062726174696f6e206661696c65642e208a
:08189c0052657472792e0d00f3
:020000040000fa
:1018a400f0b5ce46474680b5a1b02e4bfa22520081
:1018b4009a602d4b10aa5a616a469a61002000f082
:1018c400a9fe0021294801f0f3fd01f0c1fc01f05b
:1018d400cdfb00f07dfd01f097fc254800f0e0fb16
:1018e400244aa023d3581b0531d52349234801f0aa
:1018f40039fc234b01221a701b4801f015fd1a4dc7
:10190400184ca0461f4b994601272800fff736fec6
:101914002378db07f9d543461b78bb434246137053
:10192400144aa023d658f60a3e400f4b986900f09b
:10193400b7fb144b1b78b342e7d00e4a9c2380219b
:10194400c900d15001f04cfb4b461e70dce701f09e
:10195400f7fa01e0fff7bcfc01f0b0fd0028f9d074
:10196400c3e7c04690040020740400202d2d00001d
:101974004c31000000440041de040020dc0400205f
:08198400e0040020e60400204d
:020000040000fa
:10198c00f0b5060085b00f0015001c008b4265d821
:10199c0001d1824262d82100280001f0a9fc390053
:1019ac000090300001f0a4fc009b21001b1a1a00cf
:1019bc002800039301f090fc00900191019bbb4225
:1019cc0046d802d1009bb34242d8009b019c039a9b
:1019dc0001200021f61aa74101f07efc039b002b8d
:1019ec002fd0019b009adb0754081c43019b5d0818
:1019fc00039b9c46bd422ed801d1b4422bd8320059
:101a0c003b00121bab41012692185b410027b61814
:101a1c005f4101235b429c446346002bead1801951
:101a2c007941039a04000d003000390001f048fca4
:101a3c00039a06000f0001f04ffc241a8d41200080
:101a4c0029000a9b002b01d01e605f6005b0f0bd21
:101a5c0000200021c2e7b6197f41dae700200021ff
:021a6c00efe7a2
:020000040000fa
:101a6e00f0b40125ed070c005c402c40a446ae0af4
:101a7e004c18df18f4423dd2f74245d2640d4cd0db
:101a8e007f0d3cd0e41bc9022943cf0adb022b4356
:101a9e00db0a0600b61a9f4104d2013cb6197f41fb
:101aae00b6185f416812800d241838dd0018844284
:101abe0025d8e80c0021b6197f41b61a9f4103d3f1
:101ace0040414941f7d304e0b6185f41001849413f
:101ade00f1d32405b6197f41b61a9f4105d337437a
:101aee00c20717430022012f504161416246114344
:101afe00f0bc70470cd100280ad1f74208d2002062
:101b0e00c143490d0905f1e7002a01d1f74206d07c
:101b1e000020c143090dc904eae77f0df8d000206b
:041b2e006146e5e740
:020000040000fa
:101b320010b588293cd015dc81294dd003dc8029e1
:101b42004ad0002010bd822911d08429f9d1196808
:101b5200002a26d00a1d1a6000228b5e0360db1762
:101b6200436011e0a02930d010dc9029e9d1196836
:101b72000724002a2ed00919a1430a0008321a604c
:101b82000b684c68036044600120dbe7c02901d088
:101b9200f029d6d11a68111d196013680360002359
:101ba200dee70c1d1c600b689bb203604260ebe732
:101bb2001968002a04d00a1d1a600023cb56cde70b
:101bc2000c1d1c600b68dbb2efe71a68111d19606f
:101bd2001368c3e70731cfe71968002a03d00a1d4b
:0e1be2001a600b68bae70c1d1c600b68dde78b
:020000040000fa
:101bf0004b005b0d264af0b55c1e944238d8254a4e
:101c00009e1825d4332e22dc234a9b1827d4234a3e
:101c1000da400700214b9743f3403c000f0002409d
:101c20009f4319403d000a430fd0002f0dda2023b7
:101c30005b42f11824d480204003c8400200802178
:101c40004903f1400b00a4185d4120002900f0bdbc
:101c50000020002901db0021f9e71149f7e72022e4
:101c60000e4b921b934001225242f2401a43d0e79e
:101c7000002becd10022c90fcb0710001900e6e7ba
:101c800020218020891b400388400200d7e7c046fe
:101c9000fd07000001fcffffe1fbffffffff0f005e
:041ca0000000f0bf91
:020000040000fa
:101ca400f0b54b6889b005930b6807009c46079311
:101cb400cb680c008e68049310685168cd0f44d033
:101cc4000b000200002150429941059b002b08dbc8
:101cd4000222634693430793002d02d1079b5a07c0
:101ce4002ad5731e07aa02920a22009301920b00be
:101cf4000200200000f0c6fa002d02d1079b5a070b
:101d04001ed501382d23002d00d1023b049a135413
:101d140023695a1e049b121a1918079b3800009352
:101d2400330000f0faf97b68db0503d56368984259
:101d340000da180009b0f0bd1b07db0ff31ad1e776
:101d44001b07e5d501382023e0e7059b002bbfda0c
:021d5400c4e7e2
:020000040000fa
:021d5600fee7a6
:020000040000fa
:101d5800002941d010b4041c4c40a44601230022a1
:101d6800002900d54942002800d5404288422cd39a
:101d780001242407a14204d2814202d209011b0195
:101d8800f8e7e400a14204d2814202d249005b0094
:101d9800f8e7884201d3401a1a434c08a04202d3fc
:101da800001b5c0822438c08a04202d3001b9c083d
:101db8002243cc08a04202d3001bdc08224300289f
:101dc80003d01b0901d00909e3e7101c6446002c65
:101dd80000d5404210bc704701b5002001f096fbc9
:101de80002bdc0460029f7d003b5fff7b3ff0ebc0c
:081df8004243891a1847c04656
:020000040000fa
:101e000030b5224b224a1a600121442299540132f2
:101e1000995400224f201a544d385124185501343a
:101e20001955023418555430195401301a540130e0
:101e30001a5401301a5402301a542938403c1c54a8
:101e400005301a5401301a540130103c1c54013032
:101e50001a5437383734185501341a5501341a5585
:101e600043340c4d1d511034c0252d011d513a3401
:101e70001a55013406251d550b341955d6315a54bf
:101e800022395a54bb32985430bdc04600440041f8
:081e90000080820b00048000b9
:020000040000fa
:101e9800002934d00123002210b488422cd3012415
:101ea8002407a14204d2814202d209011b01f8e7aa
:101eb800e400a14204d2814202d249005b00f8e763
:101ec800884201d3401a1a434c08a04202d3001b8f
:101ed8005c0822438c08a04202d3001b9c082243c2
:101ee800cc08a04202d3001bdc082243002803d000
:101ef8001b0901d00909e3e7101c10bc704701b5a4
:101f0800002001f003fb02bd0029f8d003b5fff75c
:0c1f1800c1ff0ebc4243891a1847c046a6
:020000040000fa
:101f2400f0b51600050002278369426987b0029361
:101f3400d31a03939b1904910596019302ac3a00ba
:101f44002100286801f038f8019b984208d1ab6859
:101f5400ea68ab619a18aa626b61300007b0f0bd01
:101f640000280cda102200236968ab620a43ab61d3
:101f74006b616a60022f12d06368f61aede7019b69
:101f84001b1a01936368984202d9c01a0834013fae
:101f940023681b1823606368181a6060cfe71e006b
:021fa400dbe779
:020000040000fa
:021fa600fee754
:020000040000fa
:101fa8001e4bf0b51c68231e0dd000222100150021
:101fb80013000f68bc460f6984450bd1002a06d070
:101fc80017610b0010331800f0bd3900f1e7134b0f
:101fd8001f60f6e7844504d9002b1ad01e68b44563
:101fe80017d30a00002ff0d1002becd01f001a687d
:101ff8001969121a1037102a05d9186038180161a2
:102008000100103a02609c4206d1044b19603b0063
:10201800d9e715000b00e4e72961f8e7d8040020a8
:020000040000fa
:10202800f8b5846a05000f001600002c0ad0ab6ac8
:102038006a699b1ab3420cd2320039002800fff7b4
:102048006dff05e001f0d1f803002000002beed071
:10205800f8bd002ef0d02b0034331b785bb2002b78
:102068001adb3400dbb2621eb95c994212d122003d
:1020780039002800fff752ffa042e9d33f19341b6b
:1020880022003900686901f083f96b6930001c1976
:0c2098006c61dde7141ee6d13400f1e7b6
:020000040000fa
:1020a4000fb430b58bb00eab04cb009301ac21213f
:1020b400200000f023fa01f0b1f92378002b24d09a
:1020c4000a2b20d06b460533002401341a78002ae9
:1020d4001bd001330a2af8d101ad00232b5500216e
:1020e400002000f039fe280001f0d6f8012100207c
:1020f40000f032fe0134281901f0cef80bb030bce8
:1021040008bc04b018470024e6e70021002000f0d2
:0a21140023fe01a801f0c0f8f0e777
:020000040000fa
:10211e00f0b51d00012389b014000e9a06001a4076
:10212e000391029201d1a5420ad8220003993000f0
:10213e0000f06ffda54203d82500280009b0f0bdc0
:10214e002f1b01973a00102f00d91022202104a82e
:10215e0001f039f9019b0f2b0ed80f2204a93a403a
:10216e00300000f056fd029b002be6d122000399b1
:10217e00300000f04efde0e7102204a9300000f020
:0a218e0048fd019b103b0193e4e7bc
:020000040000fa
:10219800194b01221a701a00537e5bb2002bfbdb2d
:1021a800164b1a68164b1b68db0e072001001140fe
:1021b80049010b435201e021c9000a4013430e4a6a
:1021c8001385d070022353700e4b1361537e5bb29c
:1021d800002bfbdb084bc02292009a801a00537e2a
:1021e8005bb2002bfbdb044b0f221a761a00537ede
:1021f8005bb2002bfbdb704700400042246080008c
:08220800206080000518000fa2
:020000040000fa
:1022100070b5c30721d51b4b802212029a61830738
:1022200020d5184b802252049a6143071fd5154bc5
:10223000802292049a6103071ed5124b8022120459
:102240009a61104c80252d05a561012000f0dcfe6f
:102250006561642000f0d8fe70bd0a4b8022120236
:102260005a61dce7074b802252045a61dde7054bd7
:10227000802292045a61dee7024b802212045a61e6
:08228000dfe7c0460044004105
:020000040000fa
:10228800f7b5040019000a9fe368666800933b6885
:10229800100001932369013b1c00002e00da01267f
:1022a8000022009dea5435000123002c03dc002b9a
:1022b8001cd02000febd02000a4309d1002d07dc16
:1022c800089a921b5219002af1dd019a9207eed55d
:1022d800099b099adb1700f0cbfb8c460099013c5f
:1022e800130030320a55013d6146dee710233a6893
:0622f8009a433a60dde7a5
:020000040000fa
:1022fe00f0b50b680c008f68cd68496887b0060092
:10230e000593002902db02218b43059305a953682f
:10231e00126802910821009701912000fff7adff8e
:10232e00059bdb0602d5302301382b54059b1b077a
:10233e0002d5202301382b54236929185a1e059bd8
:10234e00121a009330003b00fff7e2fe7368db05c4
:0e235e0003d56368984200da180007b0f0bd9e
:020000040000fa
:10236c0010b584291fd007dc812915d0822922d0f1
:10237c00802911d0002010bd90291cd008dc8829a0
:10238c00f8d119680c1d1c600b6803601a7010e002
:10239c00a02901d0c029edd119680c1d1c600b6857
:1023ac0003601a6005e019680c1d1c600b68036063
:1023bc001a800120dfe719680c1d1c600b68036094
:0823cc001a60d2175a60f4e711
:020000040000fa
:1023d40010b5322000f0fefe0320fff717ff0520a2
:1023e40000f0f8fe0320fff711ff962000f00afe2c
:1023f4000320fff70bff962000f004fe0220fff7f6
:1024040005ff962000f0fefd282000f03ffe074b5c
:1024140004221a7000f0b4fe054b02221a70062042
:1024240000f034fe00f0faff10bdc046e4040020c2
:04243400e50400209b
:020000040000fa
:102438007fb51600c2680d0013000091591e8b412c
:10244800f31a019383680400039269460222006824
:10245800029300f09bfd002808dc182208230240a4
:102468005340626813436360060010e0019b834297
:10247800fad2a268c01ae3681018e2632064002b3d
:1024880005d0531ce3631378ad19013d2b70300060
:0424980004b070bd5f
:020000040000fa
:10249c0037b5164d04002b68002b0fd000f022fe30
:1024ac00019001a800f05dff0f230f3098430199b4
:1024bc0000f07efe00280cd000232b60002c00d1f5
:1024cc0001340f230f349c4304d10c222000084b01
:1024dc001a603ebd042c00d204242000fff75efde0
:1024ec000028f6d0031f1c60f3e7c046d40500207b
:0424fc00d4040020e4
:020000040000fa
:10250000f0b59bb004000d00160000214c2207a876
:102510001f0000f05fff01235b4202930433ff338f
:102520000393002c00d101ac0023049405959d4237
:1025300000d06b1e0693002d06da4f220120074bb8
:1025400040421a601bb0f0bd00233a0023703100f6
:1025500002a80894079400f0adfef3e7d40400202d
:020000040000fa
:1025600000230e4a10b513600d4a13600d4a136024
:102570000d4a13600d4a13600d4a53621361013313
:10258000936000f055ff00f09ef80a4c0a4b9c4205
:1025900000d310bd08cc9847f8e7c046d00400200f
:1025a0001404002010040020080400200c04002063
:0c25b00018040020c4000000c800000057
:020000040000fa
:1025bc0070b504000d00002801d1002070bd4368e7
:1025cc009b0607d543698269934215d80023a36201
:1025dc00a3616361e16b236c994204d2c91a012295
:1025ec00206800f093ff00232364e3639d42e4d052
:1025fc00206800f081ffe1e70022c36a11009847d0
:0c260c006369002be2d101204042d7e7b7
:020000040000fa
:1026180010b5124b06225a60114b1b68186800212e
:1026280000f0e8fe0f4b1b681868002100f0e2fe7e
:10263800fff7e2fbfff732f800f032ff00f072f923
:1026480000f0aafd00f0ccfafff7a2fd00f06efa48
:1026580000f0cef900f04afc10bdc0460040004131
:08266800ec040020d005002065
:020000040000fa
:10267000f0b50b680c008f68cd68496887b006001c
:102680000593002902db02218b43059305a95368ba
:10269000126802910a21009701912000fff7f4fdd2
:1026a000236929185a1e059b121a009330003b001b
:1026b000fff735fd7368db0503d56368984200dae0
:0626c000180007b0f0bd98
:020000040000fa
:0226c60070475b
:020000040000fa
:1026c800f8b505000c000020002d20d000f0b8fb64
:1026d800002c17d000200e4a0421072605e0178d8c
:1026e8004300ef52013084420dd0137e0b42fcd0e0
:1026f800538b334207d153683340012befd0138dee
:102708002b54efe72000201a44426041c0b2f8bdc4
:04271800001c00425f
:020000040000fa
:10271c0070b5040016001d00022a1cd043689b06ed
:10272c0019d4002908d1002d01d18025ed002800f5
:10273c000830fff7adfe010020236268a16013434f
:10274c0063602300e5603433ff22012e00d10a229e
:10275c001a70024be362002070bdc04629200000b5
:020000040000fa
:10276c00f0b50f0087b0039015001049072204a89c
:10277c001c0000f00bfebb687e6802933f68002dc6
:10278c0000d104ad002c03d1280000f0bdfd0400e5
:10279c00002e02dbb44200d934000097029b2200c9
:1027ac0029000398fff7b5fc07b0f0bdfc3400001e
:020000040000fa
:1027bc0037b56b46dd1d836a04002970002b0cd0e5
:1027cc006369a26a93420fd3e36a012229002000b5
:1027dc009847012805d1287805e000f004fd002871
:1027ec00eed0012040423ebd2200343212782878cf
:0e27fc0052b29042e8d05a1c62611870f3e7a6
:020000040000fa
:02280a00704715
:020000040000fa
:10280c0010b50e4b0e4a934207d30e4801680029af
:10281c0007d14368002b04d110bd0021197001337e
:10282c00f1e704008368084a9bb20c349b009b5868
:10283c0042682000984780002018e7e7000000203d
:0c284c0000000020600d0000843300003c
:020000040000fa
:1028580010b5064c2378002b07d1054b002b02d06e
:10286800044800e000bf0123237010bd5804002075
:102878000000000000000000044b10b5002b03d03e
:102888000349044800e000bf10bdc0460000000036
:082898005c04002000000000b8
:020000040000fa
:1028a00010b50a4b98470a4b9847fff7afff094b03
:1028b000ff229343084a9360084b9847084b984778
:1028c000084b9847fef7eefffee7c046d312000024
:1028d000d31200000000000000ed00e061250000c0
:0828e000d3120000d312000026
:020000040000fa
:1028e80070b5002818d0002918d000250c4a0124fa
:1028f800072605e06b00c35a13850135a94209d0a4
:10290800137e2342fcd053683340012bf2d0435d41
:102918001385f2e7012070bd0020fce70120fae7eb
:04292800001c00424d
:020000040000fa
:10292c000e4b01221a6019008b681a42fcd10b4b1a
:10293c00802252011a6000225a61586908490143e9
:10294c0059610221d9635a649a64da641a65313286
:10295c001a641a009368002bfcd1704700200042c7
:04296c00000e4040d9
:020000040000fa
:102970004d6f6973747572653a202564252520288a
:102980005261773a202564290d0a00004144432012
:10299000436f756e74203d2030782578200a2056cc
:1029a000616463203d2025642e2530336420562049
:0429b0000000c0461d
:020000040000fa
:1029b40030b401256d054c00e54215d85c00e542b4
:1029c40012d80c001c436400044314430fd005d2f6
:1029d40082428b418041013030bc70479042994122
:1029e4008041013030bc7047002030bc704701206a
:0429f40030bc70473c
:020000040000fa
:1029f8000c4b01221a801a00d37b5bb2002bfbdb45
:102a0800084b60221a80084a1a833b229a73074aa5
:102a18000021116001225a731a00d37b5bb2002b8c
:102a2800fbdb7047003000423f9cffffa8040020fa
:020000040000fa
:102a3800030010b51a78202a0dd01100093904298d
:102a480009d900212b2a02d02d2a01d101310133c5
:102a580000200a2404e00133ece760430133801ac4
:102a68001a78303a092af8d9002900d1404210bd15
:020000040000fa
:102a7800002b11d1002a0fd1002900d1002802d043
:102a88000021c943081c07b4024802a1401802905b
:102a980003bdc046790a000003b4684601b5029830
:102aa800fef770ff019b9e4602b00cbc7047c04603
:020000040000fa
:102ab80030b401256d054c00e54215d85c00e542af
:102ac80012d80c001c436400044314430cd005d2f4
:102ad80082428b418041404230bc704790429941cc
:0e2ae8008041404230bc7047002030bc704737
:020000040000fa
:102af60030b401256d054c00e54215d85c00e54271
:102b060012d80c001c436400044314430cd005d2b5
:102b1600904299418041404230bc704782428b418d
:0e2b26008041404230bc7047002030bc7047f8
:020000040000fa
:102b34000d4b01221a801a00d37b5bb2002bfbdb06
:102b4400094b44221a80133a1a7500221a7620324d
:102b54005a761b329a73802292015a811a00d37bcf
:0c2b64005bb2002bfbdb7047002c004232
:020000040000fa
:102b70000b00496810b50200890603d4190000f063
:102b80006bf810bd190034310978c0b249b28142e6
:102b900007d059699c6aa14203d24c1c5c610a703f
:0c2ba000efe711001800fff709feeae75c
:020000040000fa
:102bac001c2101231b04984201d3000c10391b0a71
:102bbc00984201d3000a08391b09984201d3000935
:102bcc00043902a2105c40187047c046040302028c
:0c2bdc00010101010000000000000000e9
:020000040000fa
:102be8000a4b0b4a1a600b4a9a81c02292025a6019
:102bf8001a00d369002bfcd1044a136802210b4345
:102c08001360d369002bfcd17047c046001c0042fa
:082c18000401204034f4ffff29
:020000040000fa
:102c2000436870b50400d80510d52569954200d9d0
:102c300015002a00606900f0affb226963695b1927
:102c4000551b0022636125611a7070bddb06fcd440
:082c5000200000f0b5fbf8e7dd
:020000040000fa
:102c580013b50b006a46d41d5a68c1b22170d2055b
:102c680005d55a69c0b2541c5c61117016bd0122a9
:102c78002100180000f0a0fb002801d02078f5e71b
:062c880001204042f2e7ca
:020000040000fa
:022c8e0070478d
:020000040000fa
:102c9000f0b5050000200a4a4400a65c002e02d1cf
:102ca00012195078f0bd296801300f78c0b2b742d0
:102cb00003d112190131507829600a28ebd9f1e7c4
:042cc0005833000085
:020000040000fa
:102cc400f4464a1805d200f0a7f801d5c017400809
:102cd400604701235b05d34206d200f09df801d57d
:102ce4000120c0074042604701d10042f5d0d0170f
:042cf40040087047dd
:020000040000fa
:102cf800074b1a68002a01d1064a1a60064a116869
:102d0800002901d1054911601a68054b1a607047fe
:102d1800a4040020e0050020a0040020e009002011
:042d28009c040020e7
:020000040000fa
:102d2c00094a5368013353609268934206d3064ba9
:102d3c001a7801210a431a7000225a60034a136858
:102d4c00013313607047c04690040020c804002073
:020000040000fa
:102d5c0000b583b06b460022009240325a601a00d4
:102d6c000b1c002900d00123dbb29b009b58c3181d
:102d7c00802040421843c0b200f084f903b000bd7b
:020000040000fa
:102d8c0070b5094d04002b68002b01d1fff7aeff85
:102d9c00064a286812680419a24201d32c6070bd3f
:102dac0001204042fbe7c0469c040020a004002008
:020000040000fa
:102dbc0070b5140016000a004e430d00511e8a41d6
:102dcc005242144001003200180000f0f3fa86421f
:0e2ddc0003d02900fff75af80400200070bd54
:020000040000fa
:102dea0070b4012676054c005d00e6420cd8ee422e
:102dfa000ad825430543154303d0994204d190428a
:0e2e0a0002d1012070bc7047002070bc7047e0
:020000040000fa
:102e18004a0010d2520d03231b02ff33d21a0ad4e0
:102e280052421f3209d4400dc90208430123db076f
:0e2e38001843d040704700207047d0177047f5
:020000040000fa
:102e4800094b5b8b5b070dd0074b80221a76793aca
:102e58005a831b7e5b0705d5034b04211a8d1a7e06
:0c2e68000a42fbd17047c046001c00422b
:020000040000fa
:102e740010b504004088884202d30023a38010bd0b
:102e8400904202d86423a380f9e7401a642358438c
:0a2e9400511afef75fffa080f1e77e
:020000040000fa
:102e9e00020000234832d356591e0b4313700423ed
:102eae004268134005d01023134343600120404273
:0a2ebe0070470364c3631800fae7cd
:020000040000fa
:102ec800002380290fdb812901dd83290bd107210c
:102ed800136807338b431900083111601a685b685f
:0a2ee80002604360012318007047e8
:020000040000fa
:102ef400bff35f8f62b6074ac420800013581b02d9
:102f04001b0ac02109060b43135080231b031360c3
:082f14007047c04600e100e037
:020000040000fa
:102f1c0010b5074b987bc0b23b229a73054b1b68cc
:102f2c00002b03d0034b59681b68984710bdc04653
:082f3c0000300042a80400204f
:020000040000fa
:102f4400064b01221a7000210022598099809a713f
:102f5400034b1a70034b1a707047c046b00400202c
:082f6400e2040020e304002058
:020000040000fa
:102f6c0010b5084c2368196800f06bf80123002891
:102f7c0005db23680a20196800f0adfac30f58422c
:082f8c0010bdc046d005002075
:020000040000fa
:102f9400f7b5002507000c002e000192019b9e420c
:102fa40001db2800febd62682168380000f03cf8af
:082fb40001362d180834f1e785
:020000040000fa
:102fbc00f7b5002507000c002e000192019b9e42e4
:102fcc0001db2800febd62682168380000f0a9f81a
:082fdc0001362d180834f1e75d
:020000040000fa
:102fe40010b5064b1c68064b1b68e31a312b00d83e
:102ff40010bd00f039f9024b1c60f9e7c804002049
:04300400c4040020e0
:020000040000fa
:1030080082b043001818000100230193019b9842e5
:1030180006d9c046019b01330193019b8342f8d333
:0430280002b070473b
:020000040000fa
:10302c0010b50c000023002809d10300002a06d09b
:10303c0001212000fff742fb0028f9d001231800e2
:02304c0010bdb5
:020000040000fa
:10304e0070b50e00050000f05ef9330004000200ba
:10305e0001212800fff7abfe001b431e98414042a2
:02306e0070bd33
:020000040000fa
:10307000064b1b689b0707d4044a136802210b43c5
:103080001360d369002bfcd17047c046001c00427e
:020000040000fa
:1030900010b50400054a942380210904d150000989
:1030a000fff7b6f82000fff7b3f810bd0044004169
:020000040000fa
:1030b00010b50400054a982380210904d150000965
:1030c000fff7a6f82000fff7a3f810bd0044004169
:020000040000fa
:1030d0000fb407b5054b04aa1b6802ca1868019211
:1030e00000f0e8f803b008bc04b01847d005002091
:020000040000fa
:1030f00010b5054c2368002b01d1fff7fdfd034bf4
:1031000018682368c01a10bd9c040020a004002089
:020000040000fa
:10311000002310b5934206d103201840421e90416f
:0e3120009b08c01810bdc45ccc540133f2e70c
:020000040000fa
:10312e0070b50d001400012801d0200070bd2100e3
:0c313e002800fff7d2fb0028f9d0f6e7cc
:020000040000fa
:10314c00506c616e204d6f6973747572650a4d6faa
:0c315c006e69746f722076312e30000016
:020000040000fa
:10316800002802d0044b5b880380002902d0024b60
:0c3178009b880b807047c046b00400200c
:020000040000fa
:1031840010b5054a10780423034313700c23184325
:0c319400fff77cff10bdc046e4040020e3
:020000040000fa
:1031a000044b00221a609a60034a5a6004221a6093
:0c31b0007047c04610e000e03f9c0000ab
:020000040000fa
:1031bc000023054a10b514689c4203d110600361ca
:0c31cc0001600133180010bdd804002081
:020000040000fa
:1031d80070b5051e08d00024fa26b6003000fff7a7
:0a31e8000fff0134a542f9d170bdbc
:020000040000fa
:1031f20010b50400fff752fe002805d1a368e2686b
:0a320200a36163619b18a36210bd75
:020000040000fa
:10320c00044a137802210b431370537e5bb2002bdc
:08321c00fbdb7047004000429b
:020000040000fa
:10322400044a137b02210b431373537e5bb2002bbe
:08323400fbdb70470040004283
:020000040000fa
:10323c00044b1b7e01221340181e01d0014b1a7641
:08324c007047c046004000423b
:020000040000fa
:10325400044a138802210b431380d37b5bb2002bf7
:08326400fbdb70470030004263
:020000040000fa
:10326c0010b5044c207801300521fef7b9fdc9b228
:08327c00217010bde1040020e7
:020000040000fa
:10328400a0150000b0150000bc150000ca15000010
:08329400f21500006e160000a7
:020000040000fa
:10329c0010b504000078002805d00134fff702ffb8
:0832ac0020780028f9d110bdc3
:020000040000fa
:1032b40013b50400019201aafdf7b2fb6368db06b3
:0832c40001d50120404216bdb6
:020000040000fa
:1032cc00d0400b1cd1409c46203ad340184352426c
:0832dc0063469340184370475c
:020000040000fa
:1032e4009140031c90409c46203a9340194352421b
:0832f4006346d3401943704703
:020000040000fa
:1032fc0010b5002903d1fff753fc203002e0081c65
:08330c00fff74efc10bdc046a6
:020000040000fa
:103314000378002b06d0030001331a78002afbd16e
:08332400181a70470020fce7b5
:020000040000fa
:10332c00002303704380838083602d33ff33c3609d
:06333c000023037470473a
:020000040000fa
:103342000cb407b504ab04cb0193fff7d8f803b074
:0633520008bc02b01847a0
:020000040000fa
:1033580068076c094c836a9074a07ac000806888fa
:0633680000846c8200816c
:020000040000fa
:10336e00006810b5002801da002010bdfff707fd38
:06337e00431cfad1f8e740
:020000040000fa
:103384000f340000113100000b3500000b35000034
:043394000b350000f5
:020000040000fa
:1033980010b5002a05d00023cc5cc45401339342f5
:0433a800fad110bd89
:020000040000fa
:1033ac0010b500f0a1f8024b1860586010bdc04673
:0433bc00b804002031
:020000040000fa
:1033c000c36a10b5002b01d0984710bd0068fff705
:0433d000aefefae76c
:020000040000fa
:1033d400002a06d00300c9b282181970013393423f
:0433e400fbd1704762
:020000040000fa
:1033e80003000a7818001a7001310133002af8d155
:0433f8007047c04614
:020000040000fa
:1033fc004a424a41802310b55200db00fff788f99e
:02340c0010bdf1
:020000040000fa
:10340e008a18914201d10020704700230b700131c0
:02341e00f7e7ce
:020000040000fa
:1034200010b50120fff734fe0220fff7d5fe10bdd6
:020000040000fa
:1034300010b5fff7bbfffff7e8f9fff7e6f910bd9e
:020000040000fa
:10344000494e4600696e66004e414e006e616e0048
:020000040000fa
:10345000494e4600696e66004e414e006e616e0038
:020000040000fa
:1034600010b5fdf78dfe029a039bfdf789fd10bd97
:020000040000fa
:10347000f0b40125ed076b40004c2047870f00009a
:020000040000fa
:0e3480000300413b192b01d82023184370474d
:020000040000fa
:0e348e000300613b192b01d85f2318407047e3
:020000040000fa
:0c349c00014b588b80b27047004000428a
:020000040000fa
:0c34a800014b82225a6070470040004136
:020000040000fa
:0c34b400014b186059607047a80400200c
:020000040000fa
:0c34c000014b18787047c046e204002061
:020000040000fa
:0c34cc0010b50400fff78aff200010bdbf
:020000040000fa
:0a34d80010b50068fff727fe10bdd5
:020000040000fa
:0834e20010b5fff744fb10bd1b
:020000040000fa
:0834ea00286e696c2900250021
:020000040000fa
:0834f400004870475405002058
:020000040000fa
:0734fc00286e756c6c2900bd
:020000040000fa
:0635040001204042704767
:020000040000fa
:04350a0000207047e6
:020000040000fa
:04350e0000207047e2
:020000040000fa
:043514007047c046f6
:020000040000fa
:0435180000207047d8
:020000040000fa
:0200000400807a
:0440000077c700d8a6
:020000040000fa
:0200000400807a
:044004005c00ffff5e
:00000001FF
